{
  "_format": "hh-sol-artifact-1",
  "contractName": "Poll",
  "sourceName": "contracts/Gallery.sol",
  "abi": [
    {
      "inputs": [],
      "name": "closePoll",
      "outputs": [],
      "stateMutability": "nonpayable",
      "type": "function"
    },
    {
      "inputs": [],
      "name": "getPollName",
      "outputs": [
        {
          "internalType": "string",
          "name": "pollName_",
          "type": "string"
        }
      ],
      "stateMutability": "view",
      "type": "function"
    },
    {
      "inputs": [],
      "name": "getProposals",
      "outputs": [
        {
          "components": [
            {
              "internalType": "string",
              "name": "name",
              "type": "string"
            },
            {
              "internalType": "uint256",
              "name": "voteCount",
              "type": "uint256"
            }
          ],
          "internalType": "struct Poll.Proposal[]",
          "name": "proposals_",
          "type": "tuple[]"
        }
      ],
      "stateMutability": "view",
      "type": "function"
    },
    {
      "inputs": [],
      "name": "getProposalsWithVotes",
      "outputs": [
        {
          "components": [
            {
              "internalType": "string",
              "name": "name",
              "type": "string"
            },
            {
              "internalType": "uint256",
              "name": "voteCount",
              "type": "uint256"
            }
          ],
          "internalType": "struct Poll.Proposal[]",
          "name": "proposals_",
          "type": "tuple[]"
        }
      ],
      "stateMutability": "view",
      "type": "function"
    },
    {
      "inputs": [],
      "name": "getVoters",
      "outputs": [
        {
          "components": [
            {
              "internalType": "address",
              "name": "sender",
              "type": "address"
            },
            {
              "internalType": "uint256",
              "name": "vote",
              "type": "uint256"
            },
            {
              "internalType": "string",
              "name": "name",
              "type": "string"
            }
          ],
          "internalType": "struct Poll.Voter[]",
          "name": "voters_",
          "type": "tuple[]"
        }
      ],
      "stateMutability": "view",
      "type": "function"
    },
    {
      "inputs": [
        {
          "internalType": "string[]",
          "name": "proposalNames",
          "type": "string[]"
        },
        {
          "internalType": "string",
          "name": "pollName_",
          "type": "string"
        }
      ],
      "name": "newPoll",
      "outputs": [],
      "stateMutability": "nonpayable",
      "type": "function"
    },
    {
      "inputs": [],
      "name": "pollCreator",
      "outputs": [
        {
          "internalType": "address",
          "name": "",
          "type": "address"
        }
      ],
      "stateMutability": "view",
      "type": "function"
    },
    {
      "inputs": [],
      "name": "pollName",
      "outputs": [
        {
          "internalType": "string",
          "name": "",
          "type": "string"
        }
      ],
      "stateMutability": "view",
      "type": "function"
    },
    {
      "inputs": [
        {
          "internalType": "uint256",
          "name": "",
          "type": "uint256"
        }
      ],
      "name": "proposals",
      "outputs": [
        {
          "internalType": "string",
          "name": "name",
          "type": "string"
        },
        {
          "internalType": "uint256",
          "name": "voteCount",
          "type": "uint256"
        }
      ],
      "stateMutability": "view",
      "type": "function"
    },
    {
      "inputs": [
        {
          "internalType": "uint256",
          "name": "",
          "type": "uint256"
        }
      ],
      "name": "proposalsWithoutVotes",
      "outputs": [
        {
          "internalType": "string",
          "name": "name",
          "type": "string"
        },
        {
          "internalType": "uint256",
          "name": "voteCount",
          "type": "uint256"
        }
      ],
      "stateMutability": "view",
      "type": "function"
    },
    {
      "inputs": [
        {
          "internalType": "string",
          "name": "name",
          "type": "string"
        },
        {
          "internalType": "uint256",
          "name": "proposal",
          "type": "uint256"
        }
      ],
      "name": "vote",
      "outputs": [],
      "stateMutability": "nonpayable",
      "type": "function"
    },
    {
      "inputs": [
        {
          "internalType": "uint256",
          "name": "",
          "type": "uint256"
        }
      ],
      "name": "voters",
      "outputs": [
        {
          "internalType": "address",
          "name": "sender",
          "type": "address"
        },
        {
          "internalType": "uint256",
          "name": "vote",
          "type": "uint256"
        },
        {
          "internalType": "string",
          "name": "name",
          "type": "string"
        }
      ],
      "stateMutability": "view",
      "type": "function"
    }
  ],
  "bytecode": "0x608060405234801561001057600080fd5b50611aee806100206000396000f3fe608060405234801561001057600080fd5b50600436106100b45760003560e01c80638dc55b57116100715780638dc55b571461017e578063a63858031461019c578063ab7370e5146101b8578063cdd72253146101e9578063da58c7d914610207578063ed8c2aed14610239576100b4565b8063013cf08b146100b957806318769765146100ea578063508408441461010857806362564c481461012457806363b6dcda1461014257806375c3f61b14610160575b600080fd5b6100d360048036038101906100ce91906112b9565b610243565b6040516100e1929190611657565b60405180910390f35b6100f26102ff565b6040516100ff9190611635565b60405180910390f35b610122600480360381019061011d91906111f9565b61038d565b005b61012c6105eb565b60405161013991906115f1565b60405180910390f35b61014a6106e6565b6040516101579190611635565b60405180910390f35b6101686107e4565b6040516101759190611598565b60405180910390f35b610186610808565b60405161019391906115f1565b60405180910390f35b6101b660048036038101906101b19190611265565b610991565b005b6101d260048036038101906101cd91906112b9565b610bc9565b6040516101e0929190611657565b60405180910390f35b6101f1610c85565b6040516101fe9190611613565b60405180910390f35b610221600480360381019061021c91906112b9565b610dd6565b604051610230939291906115b3565b60405180910390f35b610241610eb8565b005b6002818154811061025357600080fd5b9060005260206000209060020201600091509050806000018054610276906118dc565b80601f01602080910402602001604051908101604052809291908181526020018280546102a2906118dc565b80156102ef5780601f106102c4576101008083540402835291602001916102ef565b820191906000526020600020905b8154815290600101906020018083116102d257829003601f168201915b5050505050908060010154905082565b6004805461030c906118dc565b80601f0160208091040260200160405190810160405280929190818152602001828054610338906118dc565b80156103855780601f1061035a57610100808354040283529160200191610385565b820191906000526020600020905b81548152906001019060200180831161036857829003601f168201915b505050505081565b600073ffffffffffffffffffffffffffffffffffffffff1660008054906101000a900473ffffffffffffffffffffffffffffffffffffffff1673ffffffffffffffffffffffffffffffffffffffff161461041c576040517f08c379a000000000000000000000000000000000000000000000000000000000815260040161041390611687565b60405180910390fd5b336000806101000a81548173ffffffffffffffffffffffffffffffffffffffff021916908373ffffffffffffffffffffffffffffffffffffffff1602179055508060049080519060200190610472929190610f96565b5060005b82518110156105e657600260405180604001604052808584815181106104c5577f4e487b7100000000000000000000000000000000000000000000000000000000600052603260045260246000fd5b6020026020010151815260200160008152509080600181540180825580915050600190039060005260206000209060020201600090919091909150600082015181600001908051906020019061051c929190610f96565b506020820151816001015550506003604051806040016040528085848151811061056f577f4e487b7100000000000000000000000000000000000000000000000000000000600052603260045260246000fd5b602002602001015181526020016000815250908060018154018082558091505060019003906000526020600020906002020160009091909190915060008201518160000190805190602001906105c6929190610f96565b5060208201518160010155505080806105de9061193f565b915050610476565b505050565b60606003805480602002602001604051908101604052809291908181526020016000905b828210156106dd5783829060005260206000209060020201604051806040016040529081600082018054610642906118dc565b80601f016020809104026020016040519081016040528092919081815260200182805461066e906118dc565b80156106bb5780601f10610690576101008083540402835291602001916106bb565b820191906000526020600020905b81548152906001019060200180831161069e57829003601f168201915b505050505081526020016001820154815250508152602001906001019061060f565b50505050905090565b6060600073ffffffffffffffffffffffffffffffffffffffff1660008054906101000a900473ffffffffffffffffffffffffffffffffffffffff1673ffffffffffffffffffffffffffffffffffffffff16146107ce5760048054610749906118dc565b80601f0160208091040260200160405190810160405280929190818152602001828054610775906118dc565b80156107c25780601f10610797576101008083540402835291602001916107c2565b820191906000526020600020905b8154815290600101906020018083116107a557829003601f168201915b505050505090506107e1565b6040518060200160405280600081525090505b90565b60008054906101000a900473ffffffffffffffffffffffffffffffffffffffff1681565b606060008054906101000a900473ffffffffffffffffffffffffffffffffffffffff1673ffffffffffffffffffffffffffffffffffffffff163373ffffffffffffffffffffffffffffffffffffffff1614610898576040517f08c379a000000000000000000000000000000000000000000000000000000000815260040161088f906116c7565b60405180910390fd5b6002805480602002602001604051908101604052809291908181526020016000905b8282101561098857838290600052602060002090600202016040518060400160405290816000820180546108ed906118dc565b80601f0160208091040260200160405190810160405280929190818152602001828054610919906118dc565b80156109665780601f1061093b57610100808354040283529160200191610966565b820191906000526020600020905b81548152906001019060200180831161094957829003601f168201915b50505050508152602001600182015481525050815260200190600101906108ba565b50505050905090565b60005b600180549050811015610a95573373ffffffffffffffffffffffffffffffffffffffff16600182815481106109f2577f4e487b7100000000000000000000000000000000000000000000000000000000600052603260045260246000fd5b906000526020600020906003020160000160009054906101000a900473ffffffffffffffffffffffffffffffffffffffff1673ffffffffffffffffffffffffffffffffffffffff161415610a82576000610a81576040517f08c379a0000000000000000000000000000000000000000000000000000000008152600401610a78906116a7565b60405180910390fd5b5b8080610a8d9061193f565b915050610994565b50600160405180606001604052803373ffffffffffffffffffffffffffffffffffffffff16815260200183815260200184815250908060018154018082558091505060019003906000526020600020906003020160009091909190915060008201518160000160006101000a81548173ffffffffffffffffffffffffffffffffffffffff021916908373ffffffffffffffffffffffffffffffffffffffff160217905550602082015181600101556040820151816002019080519060200190610b5f929190610f96565b505050600160028281548110610b9e577f4e487b7100000000000000000000000000000000000000000000000000000000600052603260045260246000fd5b90600052602060002090600202016001016000828254610bbe9190611808565b925050819055505050565b60038181548110610bd957600080fd5b9060005260206000209060020201600091509050806000018054610bfc906118dc565b80601f0160208091040260200160405190810160405280929190818152602001828054610c28906118dc565b8015610c755780601f10610c4a57610100808354040283529160200191610c75565b820191906000526020600020905b815481529060010190602001808311610c5857829003601f168201915b5050505050908060010154905082565b60606001805480602002602001604051908101604052809291908181526020016000905b82821015610dcd57838290600052602060002090600302016040518060600160405290816000820160009054906101000a900473ffffffffffffffffffffffffffffffffffffffff1673ffffffffffffffffffffffffffffffffffffffff1673ffffffffffffffffffffffffffffffffffffffff16815260200160018201548152602001600282018054610d3c906118dc565b80601f0160208091040260200160405190810160405280929190818152602001828054610d68906118dc565b8015610db55780601f10610d8a57610100808354040283529160200191610db5565b820191906000526020600020905b815481529060010190602001808311610d9857829003601f168201915b50505050508152505081526020019060010190610ca9565b50505050905090565b60018181548110610de657600080fd5b90600052602060002090600302016000915090508060000160009054906101000a900473ffffffffffffffffffffffffffffffffffffffff1690806001015490806002018054610e35906118dc565b80601f0160208091040260200160405190810160405280929190818152602001828054610e61906118dc565b8015610eae5780601f10610e8357610100808354040283529160200191610eae565b820191906000526020600020905b815481529060010190602001808311610e9157829003601f168201915b5050505050905083565b60008054906101000a900473ffffffffffffffffffffffffffffffffffffffff1673ffffffffffffffffffffffffffffffffffffffff163373ffffffffffffffffffffffffffffffffffffffff1614610f46576040517f08c379a0000000000000000000000000000000000000000000000000000000008152600401610f3d906116c7565b60405180910390fd5b60036000610f54919061101c565b60026000610f62919061101c565b6000806101000a81549073ffffffffffffffffffffffffffffffffffffffff021916905560046000610f949190611040565b565b828054610fa2906118dc565b90600052602060002090601f016020900481019282610fc4576000855561100b565b82601f10610fdd57805160ff191683800117855561100b565b8280016001018555821561100b579182015b8281111561100a578251825591602001919060010190610fef565b5b5090506110189190611080565b5090565b508054600082556002029060005260206000209081019061103d919061109d565b50565b50805461104c906118dc565b6000825580601f1061105e575061107d565b601f01602090049060005260206000209081019061107c9190611080565b5b50565b5b80821115611099576000816000905550600101611081565b5090565b5b808211156110c857600080820160006110b79190611040565b60018201600090555060020161109e565b5090565b60006110df6110da8461170c565b6116e7565b905080838252602082019050828560208602820111156110fe57600080fd5b60005b8581101561114857813567ffffffffffffffff81111561112057600080fd5b80860161112d89826111ba565b85526020850194506020840193505050600181019050611101565b5050509392505050565b600061116561116084611738565b6116e7565b90508281526020810184848401111561117d57600080fd5b61118884828561189a565b509392505050565b600082601f8301126111a157600080fd5b81356111b18482602086016110cc565b91505092915050565b600082601f8301126111cb57600080fd5b81356111db848260208601611152565b91505092915050565b6000813590506111f381611aa1565b92915050565b6000806040838503121561120c57600080fd5b600083013567ffffffffffffffff81111561122657600080fd5b61123285828601611190565b925050602083013567ffffffffffffffff81111561124f57600080fd5b61125b858286016111ba565b9150509250929050565b6000806040838503121561127857600080fd5b600083013567ffffffffffffffff81111561129257600080fd5b61129e858286016111ba565b92505060206112af858286016111e4565b9150509250929050565b6000602082840312156112cb57600080fd5b60006112d9848285016111e4565b91505092915050565b60006112ee83836114ed565b905092915050565b6000611302838361152a565b905092915050565b6113138161185e565b82525050565b6113228161185e565b82525050565b600061133382611789565b61133d81856117c4565b93508360208202850161134f85611769565b8060005b8581101561138b578484038952815161136c85826112e2565b9450611377836117aa565b925060208a01995050600181019050611353565b50829750879550505050505092915050565b60006113a882611794565b6113b281856117d5565b9350836020820285016113c485611779565b8060005b8581101561140057848403895281516113e185826112f6565b94506113ec836117b7565b925060208a019950506001810190506113c8565b50829750879550505050505092915050565b600061141d8261179f565b61142781856117e6565b93506114378185602086016118a9565b61144081611a15565b840191505092915050565b60006114568261179f565b61146081856117f7565b93506114708185602086016118a9565b61147981611a15565b840191505092915050565b60006114916014836117f7565b915061149c82611a26565b602082019050919050565b60006114b4600e836117f7565b91506114bf82611a4f565b602082019050919050565b60006114d76014836117f7565b91506114e282611a78565b602082019050919050565b6000604083016000830151848203600086015261150a8282611412565b915050602083015161151f602086018261157a565b508091505092915050565b6000606083016000830151611542600086018261130a565b506020830151611555602086018261157a565b506040830151848203604086015261156d8282611412565b9150508091505092915050565b61158381611890565b82525050565b61159281611890565b82525050565b60006020820190506115ad6000830184611319565b92915050565b60006060820190506115c86000830186611319565b6115d56020830185611589565b81810360408301526115e7818461144b565b9050949350505050565b6000602082019050818103600083015261160b8184611328565b905092915050565b6000602082019050818103600083015261162d818461139d565b905092915050565b6000602082019050818103600083015261164f818461144b565b905092915050565b60006040820190508181036000830152611671818561144b565b90506116806020830184611589565b9392505050565b600060208201905081810360008301526116a081611484565b9050919050565b600060208201905081810360008301526116c0816114a7565b9050919050565b600060208201905081810360008301526116e0816114ca565b9050919050565b60006116f1611702565b90506116fd828261190e565b919050565b6000604051905090565b600067ffffffffffffffff821115611727576117266119e6565b5b602082029050602081019050919050565b600067ffffffffffffffff821115611753576117526119e6565b5b61175c82611a15565b9050602081019050919050565b6000819050602082019050919050565b6000819050602082019050919050565b600081519050919050565b600081519050919050565b600081519050919050565b6000602082019050919050565b6000602082019050919050565b600082825260208201905092915050565b600082825260208201905092915050565b600082825260208201905092915050565b600082825260208201905092915050565b600061181382611890565b915061181e83611890565b9250827fffffffffffffffffffffffffffffffffffffffffffffffffffffffffffffffff0382111561185357611852611988565b5b828201905092915050565b600061186982611870565b9050919050565b600073ffffffffffffffffffffffffffffffffffffffff82169050919050565b6000819050919050565b82818337600083830152505050565b60005b838110156118c75780820151818401526020810190506118ac565b838111156118d6576000848401525b50505050565b600060028204905060018216806118f457607f821691505b60208210811415611908576119076119b7565b5b50919050565b61191782611a15565b810181811067ffffffffffffffff82111715611936576119356119e6565b5b80604052505050565b600061194a82611890565b91507fffffffffffffffffffffffffffffffffffffffffffffffffffffffffffffffff82141561197d5761197c611988565b5b600182019050919050565b7f4e487b7100000000000000000000000000000000000000000000000000000000600052601160045260246000fd5b7f4e487b7100000000000000000000000000000000000000000000000000000000600052602260045260246000fd5b7f4e487b7100000000000000000000000000000000000000000000000000000000600052604160045260246000fd5b6000601f19601f8301169050919050565b7f506f6c6c20616c72656164792072756e6e696e67000000000000000000000000600082015250565b7f416c726561647920766f7465642e000000000000000000000000000000000000600082015250565b7f4e6f742074686520706f6c6c2063726561746f72000000000000000000000000600082015250565b611aaa81611890565b8114611ab557600080fd5b5056fea2646970667358221220cb934ef6ad35cbd0cada6577a51ccf14e0989db0edebcc7031363b0217c1d1e464736f6c63430008040033",
  "linkReferences": {},
  "deployedLinkReferences": {}
}