{
  "_format": "hh-sol-artifact-1",
  "contractName": "Poll",
  "sourceName": "contracts/Gallery.sol",
  "abi": [
    {
      "inputs": [],
      "name": "closePoll",
      "outputs": [],
      "stateMutability": "nonpayable",
      "type": "function"
    },
    {
      "inputs": [],
      "name": "getProposals",
      "outputs": [
        {
          "components": [
            {
              "internalType": "string",
              "name": "name",
              "type": "string"
            },
            {
              "internalType": "uint256",
              "name": "voteCount",
              "type": "uint256"
            }
          ],
          "internalType": "struct Poll.Proposal[]",
          "name": "proposals_",
          "type": "tuple[]"
        }
      ],
      "stateMutability": "view",
      "type": "function"
    },
    {
      "inputs": [],
      "name": "getProposalsWithVotes",
      "outputs": [
        {
          "components": [
            {
              "internalType": "string",
              "name": "name",
              "type": "string"
            },
            {
              "internalType": "uint256",
              "name": "voteCount",
              "type": "uint256"
            }
          ],
          "internalType": "struct Poll.Proposal[]",
          "name": "proposals_",
          "type": "tuple[]"
        }
      ],
      "stateMutability": "view",
      "type": "function"
    },
    {
      "inputs": [],
      "name": "getVoters",
      "outputs": [
        {
          "components": [
            {
              "internalType": "address",
              "name": "sender",
              "type": "address"
            },
            {
              "internalType": "uint256",
              "name": "vote",
              "type": "uint256"
            },
            {
              "internalType": "string",
              "name": "name",
              "type": "string"
            }
          ],
          "internalType": "struct Poll.Voter[]",
          "name": "voters_",
          "type": "tuple[]"
        }
      ],
      "stateMutability": "view",
      "type": "function"
    },
    {
      "inputs": [
        {
          "internalType": "string[]",
          "name": "proposalNames",
          "type": "string[]"
        }
      ],
      "name": "newPoll",
      "outputs": [],
      "stateMutability": "nonpayable",
      "type": "function"
    },
    {
      "inputs": [],
      "name": "pollCreator",
      "outputs": [
        {
          "internalType": "address",
          "name": "",
          "type": "address"
        }
      ],
      "stateMutability": "view",
      "type": "function"
    },
    {
      "inputs": [],
      "name": "pollIsActive",
      "outputs": [
        {
          "internalType": "bool",
          "name": "active",
          "type": "bool"
        }
      ],
      "stateMutability": "view",
      "type": "function"
    },
    {
      "inputs": [
        {
          "internalType": "uint256",
          "name": "",
          "type": "uint256"
        }
      ],
      "name": "proposals",
      "outputs": [
        {
          "internalType": "string",
          "name": "name",
          "type": "string"
        },
        {
          "internalType": "uint256",
          "name": "voteCount",
          "type": "uint256"
        }
      ],
      "stateMutability": "view",
      "type": "function"
    },
    {
      "inputs": [
        {
          "internalType": "uint256",
          "name": "",
          "type": "uint256"
        }
      ],
      "name": "proposalsWithoutVotes",
      "outputs": [
        {
          "internalType": "string",
          "name": "name",
          "type": "string"
        },
        {
          "internalType": "uint256",
          "name": "voteCount",
          "type": "uint256"
        }
      ],
      "stateMutability": "view",
      "type": "function"
    },
    {
      "inputs": [
        {
          "internalType": "string",
          "name": "name",
          "type": "string"
        },
        {
          "internalType": "uint256",
          "name": "proposal",
          "type": "uint256"
        }
      ],
      "name": "vote",
      "outputs": [],
      "stateMutability": "nonpayable",
      "type": "function"
    },
    {
      "inputs": [
        {
          "internalType": "uint256",
          "name": "",
          "type": "uint256"
        }
      ],
      "name": "voters",
      "outputs": [
        {
          "internalType": "address",
          "name": "sender",
          "type": "address"
        },
        {
          "internalType": "uint256",
          "name": "vote",
          "type": "uint256"
        },
        {
          "internalType": "string",
          "name": "name",
          "type": "string"
        }
      ],
      "stateMutability": "view",
      "type": "function"
    }
  ],
  "bytecode": "0x608060405234801561001057600080fd5b50611a83806100206000396000f3fe608060405234801561001057600080fd5b50600436106100a95760003560e01c80638dc55b57116100715780638dc55b5714610155578063a638580314610173578063ab7370e51461018f578063cdd72253146101c0578063da58c7d9146101de578063ed8c2aed14610210576100a9565b8063013cf08b146100ae5780632c6dc08c146100df5780635b670d72146100fd57806362564c481461011957806375c3f61b14610137575b600080fd5b6100c860048036038101906100c391906111a8565b61021a565b6040516100d6929190611571565b60405180910390f35b6100e76102d6565b6040516100f49190611556565b60405180910390f35b61011760048036038101906101129190611113565b61033c565b005b610121610582565b60405161012e9190611512565b60405180910390f35b61013f61070c565b60405161014c91906114b9565b60405180910390f35b61015d610730565b60405161016a9190611512565b60405180910390f35b61018d60048036038101906101889190611154565b6108b9565b005b6101a960048036038101906101a491906111a8565b610af1565b6040516101b7929190611571565b60405180910390f35b6101c8610bad565b6040516101d59190611534565b60405180910390f35b6101f860048036038101906101f391906111a8565b610cfe565b604051610207939291906114d4565b60405180910390f35b610218610de0565b005b6002818154811061022a57600080fd5b906000526020600020906002020160009150905080600001805461024d90611822565b80601f016020809104026020016040519081016040528092919081815260200182805461027990611822565b80156102c65780601f1061029b576101008083540402835291602001916102c6565b820191906000526020600020905b8154815290600101906020018083116102a957829003601f168201915b5050505050908060010154905082565b60008073ffffffffffffffffffffffffffffffffffffffff1660008054906101000a900473ffffffffffffffffffffffffffffffffffffffff1673ffffffffffffffffffffffffffffffffffffffff16146103345760019050610339565b600090505b90565b600073ffffffffffffffffffffffffffffffffffffffff1660008054906101000a900473ffffffffffffffffffffffffffffffffffffffff1673ffffffffffffffffffffffffffffffffffffffff16146103cb576040517f08c379a00000000000000000000000000000000000000000000000000000000081526004016103c2906115c1565b60405180910390fd5b336000806101000a81548173ffffffffffffffffffffffffffffffffffffffff021916908373ffffffffffffffffffffffffffffffffffffffff16021790555060005b815181101561057e576002604051806040016040528084848151811061045d577f4e487b7100000000000000000000000000000000000000000000000000000000600052603260045260246000fd5b602002602001015181526020016000815250908060018154018082558091505060019003906000526020600020906002020160009091909190915060008201518160000190805190602001906104b4929190610eb0565b5060208201518160010155505060036040518060400160405280848481518110610507577f4e487b7100000000000000000000000000000000000000000000000000000000600052603260045260246000fd5b6020026020010151815260200160008152509080600181540180825580915050600190039060005260206000209060020201600090919091909150600082015181600001908051906020019061055e929190610eb0565b50602082015181600101555050808061057690611885565b91505061040e565b5050565b606060008054906101000a900473ffffffffffffffffffffffffffffffffffffffff1673ffffffffffffffffffffffffffffffffffffffff163373ffffffffffffffffffffffffffffffffffffffff161415610613576040517f08c379a000000000000000000000000000000000000000000000000000000000815260040161060a906115a1565b60405180910390fd5b6003805480602002602001604051908101604052809291908181526020016000905b82821015610703578382906000526020600020906002020160405180604001604052908160008201805461066890611822565b80601f016020809104026020016040519081016040528092919081815260200182805461069490611822565b80156106e15780601f106106b6576101008083540402835291602001916106e1565b820191906000526020600020905b8154815290600101906020018083116106c457829003601f168201915b5050505050815260200160018201548152505081526020019060010190610635565b50505050905090565b60008054906101000a900473ffffffffffffffffffffffffffffffffffffffff1681565b606060008054906101000a900473ffffffffffffffffffffffffffffffffffffffff1673ffffffffffffffffffffffffffffffffffffffff163373ffffffffffffffffffffffffffffffffffffffff16146107c0576040517f08c379a00000000000000000000000000000000000000000000000000000000081526004016107b790611601565b60405180910390fd5b6002805480602002602001604051908101604052809291908181526020016000905b828210156108b0578382906000526020600020906002020160405180604001604052908160008201805461081590611822565b80601f016020809104026020016040519081016040528092919081815260200182805461084190611822565b801561088e5780601f106108635761010080835404028352916020019161088e565b820191906000526020600020905b81548152906001019060200180831161087157829003601f168201915b50505050508152602001600182015481525050815260200190600101906107e2565b50505050905090565b60005b6001805490508110156109bd573373ffffffffffffffffffffffffffffffffffffffff166001828154811061091a577f4e487b7100000000000000000000000000000000000000000000000000000000600052603260045260246000fd5b906000526020600020906003020160000160009054906101000a900473ffffffffffffffffffffffffffffffffffffffff1673ffffffffffffffffffffffffffffffffffffffff1614156109aa5760006109a9576040517f08c379a00000000000000000000000000000000000000000000000000000000081526004016109a0906115e1565b60405180910390fd5b5b80806109b590611885565b9150506108bc565b50600160405180606001604052803373ffffffffffffffffffffffffffffffffffffffff16815260200183815260200184815250908060018154018082558091505060019003906000526020600020906003020160009091909190915060008201518160000160006101000a81548173ffffffffffffffffffffffffffffffffffffffff021916908373ffffffffffffffffffffffffffffffffffffffff160217905550602082015181600101556040820151816002019080519060200190610a87929190610eb0565b505050600160028281548110610ac6577f4e487b7100000000000000000000000000000000000000000000000000000000600052603260045260246000fd5b90600052602060002090600202016001016000828254610ae69190611742565b925050819055505050565b60038181548110610b0157600080fd5b9060005260206000209060020201600091509050806000018054610b2490611822565b80601f0160208091040260200160405190810160405280929190818152602001828054610b5090611822565b8015610b9d5780601f10610b7257610100808354040283529160200191610b9d565b820191906000526020600020905b815481529060010190602001808311610b8057829003601f168201915b5050505050908060010154905082565b60606001805480602002602001604051908101604052809291908181526020016000905b82821015610cf557838290600052602060002090600302016040518060600160405290816000820160009054906101000a900473ffffffffffffffffffffffffffffffffffffffff1673ffffffffffffffffffffffffffffffffffffffff1673ffffffffffffffffffffffffffffffffffffffff16815260200160018201548152602001600282018054610c6490611822565b80601f0160208091040260200160405190810160405280929190818152602001828054610c9090611822565b8015610cdd5780601f10610cb257610100808354040283529160200191610cdd565b820191906000526020600020905b815481529060010190602001808311610cc057829003601f168201915b50505050508152505081526020019060010190610bd1565b50505050905090565b60018181548110610d0e57600080fd5b90600052602060002090600302016000915090508060000160009054906101000a900473ffffffffffffffffffffffffffffffffffffffff1690806001015490806002018054610d5d90611822565b80601f0160208091040260200160405190810160405280929190818152602001828054610d8990611822565b8015610dd65780601f10610dab57610100808354040283529160200191610dd6565b820191906000526020600020905b815481529060010190602001808311610db957829003601f168201915b5050505050905083565b60008054906101000a900473ffffffffffffffffffffffffffffffffffffffff1673ffffffffffffffffffffffffffffffffffffffff163373ffffffffffffffffffffffffffffffffffffffff1614610e6e576040517f08c379a0000000000000000000000000000000000000000000000000000000008152600401610e6590611601565b60405180910390fd5b60036000610e7c9190610f36565b60026000610e8a9190610f36565b6000806101000a81549073ffffffffffffffffffffffffffffffffffffffff0219169055565b828054610ebc90611822565b90600052602060002090601f016020900481019282610ede5760008555610f25565b82601f10610ef757805160ff1916838001178555610f25565b82800160010185558215610f25579182015b82811115610f24578251825591602001919060010190610f09565b5b509050610f329190610f5a565b5090565b5080546000825560020290600052602060002090810190610f579190610f77565b50565b5b80821115610f73576000816000905550600101610f5b565b5090565b5b80821115610fa25760008082016000610f919190610fa6565b600182016000905550600201610f78565b5090565b508054610fb290611822565b6000825580601f10610fc45750610fe3565b601f016020900490600052602060002090810190610fe29190610f5a565b5b50565b6000610ff9610ff484611646565b611621565b9050808382526020820190508285602086028201111561101857600080fd5b60005b8581101561106257813567ffffffffffffffff81111561103a57600080fd5b80860161104789826110d4565b8552602085019450602084019350505060018101905061101b565b5050509392505050565b600061107f61107a84611672565b611621565b90508281526020810184848401111561109757600080fd5b6110a28482856117e0565b509392505050565b600082601f8301126110bb57600080fd5b81356110cb848260208601610fe6565b91505092915050565b600082601f8301126110e557600080fd5b81356110f584826020860161106c565b91505092915050565b60008135905061110d81611a36565b92915050565b60006020828403121561112557600080fd5b600082013567ffffffffffffffff81111561113f57600080fd5b61114b848285016110aa565b91505092915050565b6000806040838503121561116757600080fd5b600083013567ffffffffffffffff81111561118157600080fd5b61118d858286016110d4565b925050602061119e858286016110fe565b9150509250929050565b6000602082840312156111ba57600080fd5b60006111c8848285016110fe565b91505092915050565b60006111dd838361140e565b905092915050565b60006111f1838361144b565b905092915050565b61120281611798565b82525050565b61121181611798565b82525050565b6000611222826116c3565b61122c81856116fe565b93508360208202850161123e856116a3565b8060005b8581101561127a578484038952815161125b85826111d1565b9450611266836116e4565b925060208a01995050600181019050611242565b50829750879550505050505092915050565b6000611297826116ce565b6112a1818561170f565b9350836020820285016112b3856116b3565b8060005b858110156112ef57848403895281516112d085826111e5565b94506112db836116f1565b925060208a019950506001810190506112b7565b50829750879550505050505092915050565b61130a816117aa565b82525050565b600061131b826116d9565b6113258185611720565b93506113358185602086016117ef565b61133e8161195b565b840191505092915050565b6000611354826116d9565b61135e8185611731565b935061136e8185602086016117ef565b6113778161195b565b840191505092915050565b600061138f602783611731565b915061139a8261196c565b604082019050919050565b60006113b2601483611731565b91506113bd826119bb565b602082019050919050565b60006113d5600e83611731565b91506113e0826119e4565b602082019050919050565b60006113f8601483611731565b915061140382611a0d565b602082019050919050565b6000604083016000830151848203600086015261142b8282611310565b9150506020830151611440602086018261149b565b508091505092915050565b600060608301600083015161146360008601826111f9565b506020830151611476602086018261149b565b506040830151848203604086015261148e8282611310565b9150508091505092915050565b6114a4816117d6565b82525050565b6114b3816117d6565b82525050565b60006020820190506114ce6000830184611208565b92915050565b60006060820190506114e96000830186611208565b6114f660208301856114aa565b81810360408301526115088184611349565b9050949350505050565b6000602082019050818103600083015261152c8184611217565b905092915050565b6000602082019050818103600083015261154e818461128c565b905092915050565b600060208201905061156b6000830184611301565b92915050565b6000604082019050818103600083015261158b8185611349565b905061159a60208301846114aa565b9392505050565b600060208201905081810360008301526115ba81611382565b9050919050565b600060208201905081810360008301526115da816113a5565b9050919050565b600060208201905081810360008301526115fa816113c8565b9050919050565b6000602082019050818103600083015261161a816113eb565b9050919050565b600061162b61163c565b90506116378282611854565b919050565b6000604051905090565b600067ffffffffffffffff8211156116615761166061192c565b5b602082029050602081019050919050565b600067ffffffffffffffff82111561168d5761168c61192c565b5b6116968261195b565b9050602081019050919050565b6000819050602082019050919050565b6000819050602082019050919050565b600081519050919050565b600081519050919050565b600081519050919050565b6000602082019050919050565b6000602082019050919050565b600082825260208201905092915050565b600082825260208201905092915050565b600082825260208201905092915050565b600082825260208201905092915050565b600061174d826117d6565b9150611758836117d6565b9250827fffffffffffffffffffffffffffffffffffffffffffffffffffffffffffffffff0382111561178d5761178c6118ce565b5b828201905092915050565b60006117a3826117b6565b9050919050565b60008115159050919050565b600073ffffffffffffffffffffffffffffffffffffffff82169050919050565b6000819050919050565b82818337600083830152505050565b60005b8381101561180d5780820151818401526020810190506117f2565b8381111561181c576000848401525b50505050565b6000600282049050600182168061183a57607f821691505b6020821081141561184e5761184d6118fd565b5b50919050565b61185d8261195b565b810181811067ffffffffffffffff8211171561187c5761187b61192c565b5b80604052505050565b6000611890826117d6565b91507fffffffffffffffffffffffffffffffffffffffffffffffffffffffffffffffff8214156118c3576118c26118ce565b5b600182019050919050565b7f4e487b7100000000000000000000000000000000000000000000000000000000600052601160045260246000fd5b7f4e487b7100000000000000000000000000000000000000000000000000000000600052602260045260246000fd5b7f4e487b7100000000000000000000000000000000000000000000000000000000600052604160045260246000fd5b6000601f19601f8301169050919050565b7f566f74696e67206e6f7420616c6c6f77656420666f722074686520706f6c6c2060008201527f63726561746f7200000000000000000000000000000000000000000000000000602082015250565b7f506f6c6c20616c72656164792072756e6e696e67000000000000000000000000600082015250565b7f416c726561647920766f7465642e000000000000000000000000000000000000600082015250565b7f4e6f742074686520706f6c6c2063726561746f72000000000000000000000000600082015250565b611a3f816117d6565b8114611a4a57600080fd5b5056fea26469706673582212208c61e8a9dc1d5903d53bc469d6ebbf4883e093a7d2637096c3e9a2b020e1757864736f6c63430008040033",
  "linkReferences": {},
  "deployedLinkReferences": {}
}