{
  "_format": "hh-sol-artifact-1",
  "contractName": "Poll",
  "sourceName": "contracts/Gallery.sol",
  "abi": [
    {
      "inputs": [],
      "name": "closePoll",
      "outputs": [],
      "stateMutability": "nonpayable",
      "type": "function"
    },
    {
      "inputs": [],
      "name": "getPollName",
      "outputs": [
        {
          "internalType": "string",
          "name": "pollName_",
          "type": "string"
        }
      ],
      "stateMutability": "view",
      "type": "function"
    },
    {
      "inputs": [],
      "name": "getProposals",
      "outputs": [
        {
          "components": [
            {
              "internalType": "string",
              "name": "name",
              "type": "string"
            },
            {
              "internalType": "uint256",
              "name": "voteCount",
              "type": "uint256"
            }
          ],
          "internalType": "struct Poll.Proposal[]",
          "name": "proposals_",
          "type": "tuple[]"
        }
      ],
      "stateMutability": "view",
      "type": "function"
    },
    {
      "inputs": [],
      "name": "getProposalsWithVotes",
      "outputs": [
        {
          "components": [
            {
              "internalType": "string",
              "name": "name",
              "type": "string"
            },
            {
              "internalType": "uint256",
              "name": "voteCount",
              "type": "uint256"
            }
          ],
          "internalType": "struct Poll.Proposal[]",
          "name": "proposals_",
          "type": "tuple[]"
        }
      ],
      "stateMutability": "view",
      "type": "function"
    },
    {
      "inputs": [],
      "name": "getVoters",
      "outputs": [
        {
          "components": [
            {
              "internalType": "address",
              "name": "sender",
              "type": "address"
            },
            {
              "internalType": "uint256",
              "name": "vote",
              "type": "uint256"
            },
            {
              "internalType": "string",
              "name": "name",
              "type": "string"
            }
          ],
          "internalType": "struct Poll.Voter[]",
          "name": "voters_",
          "type": "tuple[]"
        }
      ],
      "stateMutability": "view",
      "type": "function"
    },
    {
      "inputs": [
        {
          "internalType": "string[]",
          "name": "proposalNames",
          "type": "string[]"
        },
        {
          "internalType": "string",
          "name": "pollName_",
          "type": "string"
        }
      ],
      "name": "newPoll",
      "outputs": [],
      "stateMutability": "nonpayable",
      "type": "function"
    },
    {
      "inputs": [],
      "name": "pollCreator",
      "outputs": [
        {
          "internalType": "address",
          "name": "",
          "type": "address"
        }
      ],
      "stateMutability": "view",
      "type": "function"
    },
    {
      "inputs": [],
      "name": "pollName",
      "outputs": [
        {
          "internalType": "string",
          "name": "",
          "type": "string"
        }
      ],
      "stateMutability": "view",
      "type": "function"
    },
    {
      "inputs": [
        {
          "internalType": "uint256",
          "name": "",
          "type": "uint256"
        }
      ],
      "name": "proposals",
      "outputs": [
        {
          "internalType": "string",
          "name": "name",
          "type": "string"
        },
        {
          "internalType": "uint256",
          "name": "voteCount",
          "type": "uint256"
        }
      ],
      "stateMutability": "view",
      "type": "function"
    },
    {
      "inputs": [
        {
          "internalType": "uint256",
          "name": "",
          "type": "uint256"
        }
      ],
      "name": "proposalsWithoutVotes",
      "outputs": [
        {
          "internalType": "string",
          "name": "name",
          "type": "string"
        },
        {
          "internalType": "uint256",
          "name": "voteCount",
          "type": "uint256"
        }
      ],
      "stateMutability": "view",
      "type": "function"
    },
    {
      "inputs": [
        {
          "internalType": "string",
          "name": "name",
          "type": "string"
        },
        {
          "internalType": "uint256",
          "name": "proposal",
          "type": "uint256"
        }
      ],
      "name": "vote",
      "outputs": [],
      "stateMutability": "nonpayable",
      "type": "function"
    },
    {
      "inputs": [
        {
          "internalType": "uint256",
          "name": "",
          "type": "uint256"
        }
      ],
      "name": "voters",
      "outputs": [
        {
          "internalType": "address",
          "name": "sender",
          "type": "address"
        },
        {
          "internalType": "uint256",
          "name": "vote",
          "type": "uint256"
        },
        {
          "internalType": "string",
          "name": "name",
          "type": "string"
        }
      ],
      "stateMutability": "view",
      "type": "function"
    }
  ],
  "bytecode": "0x608060405234801561001057600080fd5b50611b76806100206000396000f3fe608060405234801561001057600080fd5b50600436106100b45760003560e01c80638dc55b57116100715780638dc55b571461017e578063a63858031461019c578063ab7370e5146101b8578063cdd72253146101e9578063da58c7d914610207578063ed8c2aed14610239576100b4565b8063013cf08b146100b957806318769765146100ea578063508408441461010857806362564c481461012457806363b6dcda1461014257806375c3f61b14610160575b600080fd5b6100d360048036038101906100ce9190611341565b610243565b6040516100e19291906116df565b60405180910390f35b6100f26102ff565b6040516100ff91906116bd565b60405180910390f35b610122600480360381019061011d9190611281565b61038d565b005b61012c6105eb565b6040516101399190611679565b60405180910390f35b61014a6106e6565b60405161015791906116bd565b60405180910390f35b6101686107e4565b6040516101759190611620565b60405180910390f35b610186610808565b6040516101939190611679565b60405180910390f35b6101b660048036038101906101b191906112ed565b610991565b005b6101d260048036038101906101cd9190611341565b610bc9565b6040516101e09291906116df565b60405180910390f35b6101f1610c85565b6040516101fe919061169b565b60405180910390f35b610221600480360381019061021c9190611341565b610dd6565b6040516102309392919061163b565b60405180910390f35b610241610eb8565b005b6002818154811061025357600080fd5b906000526020600020906002020160009150905080600001805461027690611964565b80601f01602080910402602001604051908101604052809291908181526020018280546102a290611964565b80156102ef5780601f106102c4576101008083540402835291602001916102ef565b820191906000526020600020905b8154815290600101906020018083116102d257829003601f168201915b5050505050908060010154905082565b6004805461030c90611964565b80601f016020809104026020016040519081016040528092919081815260200182805461033890611964565b80156103855780601f1061035a57610100808354040283529160200191610385565b820191906000526020600020905b81548152906001019060200180831161036857829003601f168201915b505050505081565b600073ffffffffffffffffffffffffffffffffffffffff1660008054906101000a900473ffffffffffffffffffffffffffffffffffffffff1673ffffffffffffffffffffffffffffffffffffffff161461041c576040517f08c379a00000000000000000000000000000000000000000000000000000000081526004016104139061170f565b60405180910390fd5b336000806101000a81548173ffffffffffffffffffffffffffffffffffffffff021916908373ffffffffffffffffffffffffffffffffffffffff1602179055508060049080519060200190610472929190610fa4565b5060005b82518110156105e657600260405180604001604052808584815181106104c5577f4e487b7100000000000000000000000000000000000000000000000000000000600052603260045260246000fd5b6020026020010151815260200160008152509080600181540180825580915050600190039060005260206000209060020201600090919091909150600082015181600001908051906020019061051c929190610fa4565b506020820151816001015550506003604051806040016040528085848151811061056f577f4e487b7100000000000000000000000000000000000000000000000000000000600052603260045260246000fd5b602002602001015181526020016000815250908060018154018082558091505060019003906000526020600020906002020160009091909190915060008201518160000190805190602001906105c6929190610fa4565b5060208201518160010155505080806105de906119c7565b915050610476565b505050565b60606003805480602002602001604051908101604052809291908181526020016000905b828210156106dd578382906000526020600020906002020160405180604001604052908160008201805461064290611964565b80601f016020809104026020016040519081016040528092919081815260200182805461066e90611964565b80156106bb5780601f10610690576101008083540402835291602001916106bb565b820191906000526020600020905b81548152906001019060200180831161069e57829003601f168201915b505050505081526020016001820154815250508152602001906001019061060f565b50505050905090565b6060600073ffffffffffffffffffffffffffffffffffffffff1660008054906101000a900473ffffffffffffffffffffffffffffffffffffffff1673ffffffffffffffffffffffffffffffffffffffff16146107ce576004805461074990611964565b80601f016020809104026020016040519081016040528092919081815260200182805461077590611964565b80156107c25780601f10610797576101008083540402835291602001916107c2565b820191906000526020600020905b8154815290600101906020018083116107a557829003601f168201915b505050505090506107e1565b6040518060200160405280600081525090505b90565b60008054906101000a900473ffffffffffffffffffffffffffffffffffffffff1681565b606060008054906101000a900473ffffffffffffffffffffffffffffffffffffffff1673ffffffffffffffffffffffffffffffffffffffff163373ffffffffffffffffffffffffffffffffffffffff1614610898576040517f08c379a000000000000000000000000000000000000000000000000000000000815260040161088f9061174f565b60405180910390fd5b6002805480602002602001604051908101604052809291908181526020016000905b8282101561098857838290600052602060002090600202016040518060400160405290816000820180546108ed90611964565b80601f016020809104026020016040519081016040528092919081815260200182805461091990611964565b80156109665780601f1061093b57610100808354040283529160200191610966565b820191906000526020600020905b81548152906001019060200180831161094957829003601f168201915b50505050508152602001600182015481525050815260200190600101906108ba565b50505050905090565b60005b600180549050811015610a95573373ffffffffffffffffffffffffffffffffffffffff16600182815481106109f2577f4e487b7100000000000000000000000000000000000000000000000000000000600052603260045260246000fd5b906000526020600020906003020160000160009054906101000a900473ffffffffffffffffffffffffffffffffffffffff1673ffffffffffffffffffffffffffffffffffffffff161415610a82576000610a81576040517f08c379a0000000000000000000000000000000000000000000000000000000008152600401610a789061172f565b60405180910390fd5b5b8080610a8d906119c7565b915050610994565b50600160405180606001604052803373ffffffffffffffffffffffffffffffffffffffff16815260200183815260200184815250908060018154018082558091505060019003906000526020600020906003020160009091909190915060008201518160000160006101000a81548173ffffffffffffffffffffffffffffffffffffffff021916908373ffffffffffffffffffffffffffffffffffffffff160217905550602082015181600101556040820151816002019080519060200190610b5f929190610fa4565b505050600160028281548110610b9e577f4e487b7100000000000000000000000000000000000000000000000000000000600052603260045260246000fd5b90600052602060002090600202016001016000828254610bbe9190611890565b925050819055505050565b60038181548110610bd957600080fd5b9060005260206000209060020201600091509050806000018054610bfc90611964565b80601f0160208091040260200160405190810160405280929190818152602001828054610c2890611964565b8015610c755780601f10610c4a57610100808354040283529160200191610c75565b820191906000526020600020905b815481529060010190602001808311610c5857829003601f168201915b5050505050908060010154905082565b60606001805480602002602001604051908101604052809291908181526020016000905b82821015610dcd57838290600052602060002090600302016040518060600160405290816000820160009054906101000a900473ffffffffffffffffffffffffffffffffffffffff1673ffffffffffffffffffffffffffffffffffffffff1673ffffffffffffffffffffffffffffffffffffffff16815260200160018201548152602001600282018054610d3c90611964565b80601f0160208091040260200160405190810160405280929190818152602001828054610d6890611964565b8015610db55780601f10610d8a57610100808354040283529160200191610db5565b820191906000526020600020905b815481529060010190602001808311610d9857829003601f168201915b50505050508152505081526020019060010190610ca9565b50505050905090565b60018181548110610de657600080fd5b90600052602060002090600302016000915090508060000160009054906101000a900473ffffffffffffffffffffffffffffffffffffffff1690806001015490806002018054610e3590611964565b80601f0160208091040260200160405190810160405280929190818152602001828054610e6190611964565b8015610eae5780601f10610e8357610100808354040283529160200191610eae565b820191906000526020600020905b815481529060010190602001808311610e9157829003601f168201915b5050505050905083565b60008054906101000a900473ffffffffffffffffffffffffffffffffffffffff1673ffffffffffffffffffffffffffffffffffffffff163373ffffffffffffffffffffffffffffffffffffffff1614610f46576040517f08c379a0000000000000000000000000000000000000000000000000000000008152600401610f3d9061174f565b60405180910390fd5b60036000610f54919061102a565b60026000610f62919061102a565b6000806101000a81549073ffffffffffffffffffffffffffffffffffffffff021916905560046000610f94919061104e565b60016000610fa2919061108e565b565b828054610fb090611964565b90600052602060002090601f016020900481019282610fd25760008555611019565b82601f10610feb57805160ff1916838001178555611019565b82800160010185558215611019579182015b82811115611018578251825591602001919060010190610ffd565b5b50905061102691906110b2565b5090565b508054600082556002029060005260206000209081019061104b91906110cf565b50565b50805461105a90611964565b6000825580601f1061106c575061108b565b601f01602090049060005260206000209081019061108a91906110b2565b5b50565b50805460008255600302906000526020600020908101906110af91906110fe565b50565b5b808211156110cb5760008160009055506001016110b3565b5090565b5b808211156110fa57600080820160006110e9919061104e565b6001820160009055506002016110d0565b5090565b5b8082111561115057600080820160006101000a81549073ffffffffffffffffffffffffffffffffffffffff02191690556001820160009055600282016000611147919061104e565b506003016110ff565b5090565b600061116761116284611794565b61176f565b9050808382526020820190508285602086028201111561118657600080fd5b60005b858110156111d057813567ffffffffffffffff8111156111a857600080fd5b8086016111b58982611242565b85526020850194506020840193505050600181019050611189565b5050509392505050565b60006111ed6111e8846117c0565b61176f565b90508281526020810184848401111561120557600080fd5b611210848285611922565b509392505050565b600082601f83011261122957600080fd5b8135611239848260208601611154565b91505092915050565b600082601f83011261125357600080fd5b81356112638482602086016111da565b91505092915050565b60008135905061127b81611b29565b92915050565b6000806040838503121561129457600080fd5b600083013567ffffffffffffffff8111156112ae57600080fd5b6112ba85828601611218565b925050602083013567ffffffffffffffff8111156112d757600080fd5b6112e385828601611242565b9150509250929050565b6000806040838503121561130057600080fd5b600083013567ffffffffffffffff81111561131a57600080fd5b61132685828601611242565b92505060206113378582860161126c565b9150509250929050565b60006020828403121561135357600080fd5b60006113618482850161126c565b91505092915050565b60006113768383611575565b905092915050565b600061138a83836115b2565b905092915050565b61139b816118e6565b82525050565b6113aa816118e6565b82525050565b60006113bb82611811565b6113c5818561184c565b9350836020820285016113d7856117f1565b8060005b8581101561141357848403895281516113f4858261136a565b94506113ff83611832565b925060208a019950506001810190506113db565b50829750879550505050505092915050565b60006114308261181c565b61143a818561185d565b93508360208202850161144c85611801565b8060005b858110156114885784840389528151611469858261137e565b94506114748361183f565b925060208a01995050600181019050611450565b50829750879550505050505092915050565b60006114a582611827565b6114af818561186e565b93506114bf818560208601611931565b6114c881611a9d565b840191505092915050565b60006114de82611827565b6114e8818561187f565b93506114f8818560208601611931565b61150181611a9d565b840191505092915050565b600061151960148361187f565b915061152482611aae565b602082019050919050565b600061153c600e8361187f565b915061154782611ad7565b602082019050919050565b600061155f60148361187f565b915061156a82611b00565b602082019050919050565b60006040830160008301518482036000860152611592828261149a565b91505060208301516115a76020860182611602565b508091505092915050565b60006060830160008301516115ca6000860182611392565b5060208301516115dd6020860182611602565b50604083015184820360408601526115f5828261149a565b9150508091505092915050565b61160b81611918565b82525050565b61161a81611918565b82525050565b600060208201905061163560008301846113a1565b92915050565b600060608201905061165060008301866113a1565b61165d6020830185611611565b818103604083015261166f81846114d3565b9050949350505050565b6000602082019050818103600083015261169381846113b0565b905092915050565b600060208201905081810360008301526116b58184611425565b905092915050565b600060208201905081810360008301526116d781846114d3565b905092915050565b600060408201905081810360008301526116f981856114d3565b90506117086020830184611611565b9392505050565b600060208201905081810360008301526117288161150c565b9050919050565b600060208201905081810360008301526117488161152f565b9050919050565b6000602082019050818103600083015261176881611552565b9050919050565b600061177961178a565b90506117858282611996565b919050565b6000604051905090565b600067ffffffffffffffff8211156117af576117ae611a6e565b5b602082029050602081019050919050565b600067ffffffffffffffff8211156117db576117da611a6e565b5b6117e482611a9d565b9050602081019050919050565b6000819050602082019050919050565b6000819050602082019050919050565b600081519050919050565b600081519050919050565b600081519050919050565b6000602082019050919050565b6000602082019050919050565b600082825260208201905092915050565b600082825260208201905092915050565b600082825260208201905092915050565b600082825260208201905092915050565b600061189b82611918565b91506118a683611918565b9250827fffffffffffffffffffffffffffffffffffffffffffffffffffffffffffffffff038211156118db576118da611a10565b5b828201905092915050565b60006118f1826118f8565b9050919050565b600073ffffffffffffffffffffffffffffffffffffffff82169050919050565b6000819050919050565b82818337600083830152505050565b60005b8381101561194f578082015181840152602081019050611934565b8381111561195e576000848401525b50505050565b6000600282049050600182168061197c57607f821691505b602082108114156119905761198f611a3f565b5b50919050565b61199f82611a9d565b810181811067ffffffffffffffff821117156119be576119bd611a6e565b5b80604052505050565b60006119d282611918565b91507fffffffffffffffffffffffffffffffffffffffffffffffffffffffffffffffff821415611a0557611a04611a10565b5b600182019050919050565b7f4e487b7100000000000000000000000000000000000000000000000000000000600052601160045260246000fd5b7f4e487b7100000000000000000000000000000000000000000000000000000000600052602260045260246000fd5b7f4e487b7100000000000000000000000000000000000000000000000000000000600052604160045260246000fd5b6000601f19601f8301169050919050565b7f506f6c6c20616c72656164792072756e6e696e67000000000000000000000000600082015250565b7f416c726561647920766f7465642e000000000000000000000000000000000000600082015250565b7f4e6f742074686520706f6c6c2063726561746f72000000000000000000000000600082015250565b611b3281611918565b8114611b3d57600080fd5b5056fea264697066735822122033ce13eb4180ba1f1ac1a42cfa4e89cd3963df7b24170b9b4b269a81bbb285e564736f6c63430008040033",
  "linkReferences": {},
  "deployedLinkReferences": {}
}