{
  "_format": "hh-sol-artifact-1",
  "contractName": "Poll",
  "sourceName": "contracts/Gallery.sol",
  "abi": [
    {
      "inputs": [],
      "name": "closePoll",
      "outputs": [],
      "stateMutability": "nonpayable",
      "type": "function"
    },
    {
      "inputs": [],
      "name": "getProposals",
      "outputs": [
        {
          "components": [
            {
              "internalType": "bytes32",
              "name": "name",
              "type": "bytes32"
            },
            {
              "internalType": "uint256",
              "name": "voteCount",
              "type": "uint256"
            }
          ],
          "internalType": "struct Poll.Proposal[]",
          "name": "proposals_",
          "type": "tuple[]"
        }
      ],
      "stateMutability": "view",
      "type": "function"
    },
    {
      "inputs": [],
      "name": "getProposalsWithVotes",
      "outputs": [
        {
          "components": [
            {
              "internalType": "bytes32",
              "name": "name",
              "type": "bytes32"
            },
            {
              "internalType": "uint256",
              "name": "voteCount",
              "type": "uint256"
            }
          ],
          "internalType": "struct Poll.Proposal[]",
          "name": "proposals_",
          "type": "tuple[]"
        }
      ],
      "stateMutability": "view",
      "type": "function"
    },
    {
      "inputs": [],
      "name": "getVoters",
      "outputs": [
        {
          "components": [
            {
              "internalType": "address",
              "name": "sender",
              "type": "address"
            },
            {
              "internalType": "uint256",
              "name": "vote",
              "type": "uint256"
            },
            {
              "internalType": "bytes32",
              "name": "name",
              "type": "bytes32"
            }
          ],
          "internalType": "struct Poll.Voter[]",
          "name": "voters_",
          "type": "tuple[]"
        }
      ],
      "stateMutability": "view",
      "type": "function"
    },
    {
      "inputs": [
        {
          "internalType": "bytes32[]",
          "name": "proposalNames",
          "type": "bytes32[]"
        }
      ],
      "name": "newPoll",
      "outputs": [],
      "stateMutability": "nonpayable",
      "type": "function"
    },
    {
      "inputs": [],
      "name": "pollCreator",
      "outputs": [
        {
          "internalType": "address",
          "name": "",
          "type": "address"
        }
      ],
      "stateMutability": "view",
      "type": "function"
    },
    {
      "inputs": [],
      "name": "pollIsActive",
      "outputs": [
        {
          "internalType": "bool",
          "name": "active",
          "type": "bool"
        }
      ],
      "stateMutability": "view",
      "type": "function"
    },
    {
      "inputs": [
        {
          "internalType": "uint256",
          "name": "",
          "type": "uint256"
        }
      ],
      "name": "proposals",
      "outputs": [
        {
          "internalType": "bytes32",
          "name": "name",
          "type": "bytes32"
        },
        {
          "internalType": "uint256",
          "name": "voteCount",
          "type": "uint256"
        }
      ],
      "stateMutability": "view",
      "type": "function"
    },
    {
      "inputs": [
        {
          "internalType": "uint256",
          "name": "",
          "type": "uint256"
        }
      ],
      "name": "proposalsWithoutVotes",
      "outputs": [
        {
          "internalType": "bytes32",
          "name": "name",
          "type": "bytes32"
        },
        {
          "internalType": "uint256",
          "name": "voteCount",
          "type": "uint256"
        }
      ],
      "stateMutability": "view",
      "type": "function"
    },
    {
      "inputs": [
        {
          "internalType": "bytes32",
          "name": "name",
          "type": "bytes32"
        },
        {
          "internalType": "uint256",
          "name": "proposal",
          "type": "uint256"
        }
      ],
      "name": "vote",
      "outputs": [],
      "stateMutability": "nonpayable",
      "type": "function"
    },
    {
      "inputs": [
        {
          "internalType": "uint256",
          "name": "",
          "type": "uint256"
        }
      ],
      "name": "voters",
      "outputs": [
        {
          "internalType": "address",
          "name": "sender",
          "type": "address"
        },
        {
          "internalType": "uint256",
          "name": "vote",
          "type": "uint256"
        },
        {
          "internalType": "bytes32",
          "name": "name",
          "type": "bytes32"
        }
      ],
      "stateMutability": "view",
      "type": "function"
    }
  ],
  "bytecode": "0x608060405234801561001057600080fd5b50611437806100206000396000f3fe608060405234801561001057600080fd5b50600436106100a95760003560e01c80639ef1204c116100715780639ef1204c14610157578063ab7370e514610173578063b44ea181146101a4578063cdd72253146101c0578063da58c7d9146101de578063ed8c2aed14610210576100a9565b8063013cf08b146100ae5780632c6dc08c146100df57806362564c48146100fd57806375c3f61b1461011b5780638dc55b5714610139575b600080fd5b6100c860048036038101906100c39190610ccf565b61021a565b6040516100d6929190610ffb565b60405180910390f35b6100e761024e565b6040516100f49190610fe0565b60405180910390f35b6101056102b4565b6040516101129190610f9c565b60405180910390f35b6101236103b6565b6040516101309190610f4a565b60405180910390f35b6101416103da565b60405161014e9190610f9c565b60405180910390f35b610171600480360381019061016c9190610c93565b6104db565b005b61018d60048036038101906101889190610ccf565b610700565b60405161019b929190610ffb565b60405180910390f35b6101be60048036038101906101b99190610c52565b610734565b005b6101c8610954565b6040516101d59190610fbe565b60405180910390f35b6101f860048036038101906101f39190610ccf565b610a1d565b60405161020793929190610f65565b60405180910390f35b610218610a77565b005b6002818154811061022a57600080fd5b90600052602060002090600202016000915090508060000154908060010154905082565b60008073ffffffffffffffffffffffffffffffffffffffff1660008054906101000a900473ffffffffffffffffffffffffffffffffffffffff1673ffffffffffffffffffffffffffffffffffffffff16146102ac57600190506102b1565b600090505b90565b606060008054906101000a900473ffffffffffffffffffffffffffffffffffffffff1673ffffffffffffffffffffffffffffffffffffffff163373ffffffffffffffffffffffffffffffffffffffff161415610345576040517f08c379a000000000000000000000000000000000000000000000000000000000815260040161033c90611024565b60405180910390fd5b6003805480602002602001604051908101604052809291908181526020016000905b828210156103ad57838290600052602060002090600202016040518060400160405290816000820154815260200160018201548152505081526020019060010190610367565b50505050905090565b60008054906101000a900473ffffffffffffffffffffffffffffffffffffffff1681565b606060008054906101000a900473ffffffffffffffffffffffffffffffffffffffff1673ffffffffffffffffffffffffffffffffffffffff163373ffffffffffffffffffffffffffffffffffffffff161461046a576040517f08c379a000000000000000000000000000000000000000000000000000000000815260040161046190611084565b60405180910390fd5b6002805480602002602001604051908101604052809291908181526020016000905b828210156104d25783829060005260206000209060020201604051806040016040529081600082015481526020016001820154815250508152602001906001019061048c565b50505050905090565b60005b6001805490508110156105df573373ffffffffffffffffffffffffffffffffffffffff166001828154811061053c577f4e487b7100000000000000000000000000000000000000000000000000000000600052603260045260246000fd5b906000526020600020906003020160000160009054906101000a900473ffffffffffffffffffffffffffffffffffffffff1673ffffffffffffffffffffffffffffffffffffffff1614156105cc5760006105cb576040517f08c379a00000000000000000000000000000000000000000000000000000000081526004016105c290611064565b60405180910390fd5b5b80806105d790611251565b9150506104de565b50600160405180606001604052803373ffffffffffffffffffffffffffffffffffffffff16815260200183815260200184815250908060018154018082558091505060019003906000526020600020906003020160009091909190915060008201518160000160006101000a81548173ffffffffffffffffffffffffffffffffffffffff021916908373ffffffffffffffffffffffffffffffffffffffff160217905550602082015181600101556040820151816002015550506001600282815481106106d5577f4e487b7100000000000000000000000000000000000000000000000000000000600052603260045260246000fd5b906000526020600020906002020160010160008282546106f59190611178565b925050819055505050565b6003818154811061071057600080fd5b90600052602060002090600202016000915090508060000154908060010154905082565b600073ffffffffffffffffffffffffffffffffffffffff1660008054906101000a900473ffffffffffffffffffffffffffffffffffffffff1673ffffffffffffffffffffffffffffffffffffffff16146107c3576040517f08c379a00000000000000000000000000000000000000000000000000000000081526004016107ba90611044565b60405180910390fd5b336000806101000a81548173ffffffffffffffffffffffffffffffffffffffff021916908373ffffffffffffffffffffffffffffffffffffffff16021790555060005b81518110156109505760026040518060400160405280848481518110610855577f4e487b7100000000000000000000000000000000000000000000000000000000600052603260045260246000fd5b602002602001015181526020016000815250908060018154018082558091505060019003906000526020600020906002020160009091909190915060008201518160000155602082015181600101555050600360405180604001604052808484815181106108ec577f4e487b7100000000000000000000000000000000000000000000000000000000600052603260045260246000fd5b602002602001015181526020016000815250908060018154018082558091505060019003906000526020600020906002020160009091909190915060008201518160000155602082015181600101555050808061094890611251565b915050610806565b5050565b60606001805480602002602001604051908101604052809291908181526020016000905b82821015610a1457838290600052602060002090600302016040518060600160405290816000820160009054906101000a900473ffffffffffffffffffffffffffffffffffffffff1673ffffffffffffffffffffffffffffffffffffffff1673ffffffffffffffffffffffffffffffffffffffff1681526020016001820154815260200160028201548152505081526020019060010190610978565b50505050905090565b60018181548110610a2d57600080fd5b90600052602060002090600302016000915090508060000160009054906101000a900473ffffffffffffffffffffffffffffffffffffffff16908060010154908060020154905083565b60008054906101000a900473ffffffffffffffffffffffffffffffffffffffff1673ffffffffffffffffffffffffffffffffffffffff163373ffffffffffffffffffffffffffffffffffffffff1614610b05576040517f08c379a0000000000000000000000000000000000000000000000000000000008152600401610afc90611084565b60405180910390fd5b60036000610b139190610b47565b60026000610b219190610b47565b6000806101000a81549073ffffffffffffffffffffffffffffffffffffffff0219169055565b5080546000825560020290600052602060002090810190610b689190610b6b565b50565b5b80821115610b8e57600080820160009055600182016000905550600201610b6c565b5090565b6000610ba5610ba0846110c9565b6110a4565b90508083825260208201905082856020860282011115610bc457600080fd5b60005b85811015610bf45781610bda8882610c28565b845260208401935060208301925050600181019050610bc7565b5050509392505050565b600082601f830112610c0f57600080fd5b8135610c1f848260208601610b92565b91505092915050565b600081359050610c37816113d3565b92915050565b600081359050610c4c816113ea565b92915050565b600060208284031215610c6457600080fd5b600082013567ffffffffffffffff811115610c7e57600080fd5b610c8a84828501610bfe565b91505092915050565b60008060408385031215610ca657600080fd5b6000610cb485828601610c28565b9250506020610cc585828601610c3d565b9150509250929050565b600060208284031215610ce157600080fd5b6000610cef84828501610c3d565b91505092915050565b6000610d048383610ebb565b60408301905092915050565b6000610d1c8383610eea565b60608301905092915050565b610d31816111ce565b82525050565b610d40816111ce565b82525050565b6000610d5182611115565b610d5b8185611145565b9350610d66836110f5565b8060005b83811015610d97578151610d7e8882610cf8565b9750610d898361112b565b925050600181019050610d6a565b5085935050505092915050565b6000610daf82611120565b610db98185611156565b9350610dc483611105565b8060005b83811015610df5578151610ddc8882610d10565b9750610de783611138565b925050600181019050610dc8565b5085935050505092915050565b610e0b816111e0565b82525050565b610e1a816111ec565b82525050565b610e29816111ec565b82525050565b6000610e3c602783611167565b9150610e4782611309565b604082019050919050565b6000610e5f601483611167565b9150610e6a82611358565b602082019050919050565b6000610e82600e83611167565b9150610e8d82611381565b602082019050919050565b6000610ea5601483611167565b9150610eb0826113aa565b602082019050919050565b604082016000820151610ed16000850182610e11565b506020820151610ee46020850182610f2c565b50505050565b606082016000820151610f006000850182610d28565b506020820151610f136020850182610f2c565b506040820151610f266040850182610e11565b50505050565b610f3581611216565b82525050565b610f4481611216565b82525050565b6000602082019050610f5f6000830184610d37565b92915050565b6000606082019050610f7a6000830186610d37565b610f876020830185610f3b565b610f946040830184610e20565b949350505050565b60006020820190508181036000830152610fb68184610d46565b905092915050565b60006020820190508181036000830152610fd88184610da4565b905092915050565b6000602082019050610ff56000830184610e02565b92915050565b60006040820190506110106000830185610e20565b61101d6020830184610f3b565b9392505050565b6000602082019050818103600083015261103d81610e2f565b9050919050565b6000602082019050818103600083015261105d81610e52565b9050919050565b6000602082019050818103600083015261107d81610e75565b9050919050565b6000602082019050818103600083015261109d81610e98565b9050919050565b60006110ae6110bf565b90506110ba8282611220565b919050565b6000604051905090565b600067ffffffffffffffff8211156110e4576110e36112c9565b5b602082029050602081019050919050565b6000819050602082019050919050565b6000819050602082019050919050565b600081519050919050565b600081519050919050565b6000602082019050919050565b6000602082019050919050565b600082825260208201905092915050565b600082825260208201905092915050565b600082825260208201905092915050565b600061118382611216565b915061118e83611216565b9250827fffffffffffffffffffffffffffffffffffffffffffffffffffffffffffffffff038211156111c3576111c261129a565b5b828201905092915050565b60006111d9826111f6565b9050919050565b60008115159050919050565b6000819050919050565b600073ffffffffffffffffffffffffffffffffffffffff82169050919050565b6000819050919050565b611229826112f8565b810181811067ffffffffffffffff82111715611248576112476112c9565b5b80604052505050565b600061125c82611216565b91507fffffffffffffffffffffffffffffffffffffffffffffffffffffffffffffffff82141561128f5761128e61129a565b5b600182019050919050565b7f4e487b7100000000000000000000000000000000000000000000000000000000600052601160045260246000fd5b7f4e487b7100000000000000000000000000000000000000000000000000000000600052604160045260246000fd5b6000601f19601f8301169050919050565b7f566f74696e67206e6f7420616c6c6f77656420666f722074686520706f6c6c2060008201527f63726561746f7200000000000000000000000000000000000000000000000000602082015250565b7f506f6c6c20616c72656164792072756e6e696e67000000000000000000000000600082015250565b7f416c726561647920766f7465642e000000000000000000000000000000000000600082015250565b7f4e6f742074686520706f6c6c2063726561746f72000000000000000000000000600082015250565b6113dc816111ec565b81146113e757600080fd5b50565b6113f381611216565b81146113fe57600080fd5b5056fea26469706673582212203b0854b93ed3ad041a48de981bed77507192afcce08d0dada3e6bbed4ff3440d64736f6c63430008040033",
  "linkReferences": {},
  "deployedLinkReferences": {}
}